:1000000072C00000A1C000009FC000009DC00000A1
:100010009BC0000099C0000097C0000095C0000080
:1000200093C0000091C000008FC000008DC0000090
:100030008BC0000089C0000087C0000085C00000A0
:1000400083C0000081C000007FC000007DC00000B0
:100050007BC0000079C0000077C000000C942A2B00
:1000600073C000000C94B5230C948B236DC000006A
:100070006BC0000069C0000067C0000065C00000E0
:1000800063C0000061C000005FC000005DC00000F0
:100090005BC0000059C0000057C0000055C0000000
:1000A00053C0000051C000004FC000004DC0000010
:1000B0004BC0000049C0000047C0000045C0000020
:1000C00043C0000041C000003FC000003DC0000030
:1000D0003BC0000039C0000037C0000035C0000040
:1000E00033C000008C3111241FBECFEFD1E2DEBF40
:1000F000CDBF00E00CBF13E0A0E0B2E0ECE0FFE613
:1001000000E00BBF02C007900D92AC31B107D9F7E8
:1001100029E0ACE1B3E001C01D92A93AB207E1F7D2
:1001200010E0C3E7D0E000E006C021970109802F6E
:10013000FE010E946C33C237D10780E00807A9F79F
:100140000E942E2C0C9484375BCF2F923F924F92BB
:100150005F926F927F928F929F92AF92BF92CF9257
:10016000DF92EF92FF920F931F93CF93DF93CDB760
:10017000DEB7A0970FB6F894DEBF0FBECDBF1C014F
:10018000FB01098B1A8B2B8B3C8B790100271127E4
:10019000ED86FE860F87188B4F8B588F1D821E822F
:1001A0001F82188609891A892B893C8922273327BF
:1001B00009871A872B873C8710E12116310414F434
:1001C0000C94BA0C80819181A281B3816C017D0174
:1001D000EE24FF248D012227332709831A832B83E2
:1001E0003C832D853E854F855889C701B6010E9405
:1001F000BA322B013C0129853A854B855C85C701C4
:10020000B6010E94BA326D8F7E8F8F8F98A369815D
:100210007A818B819C810E94BA324B015C012D85D1
:100220003E854F85588969817A818B819C810E94A6
:10023000BA329301442755277501002711272E0D47
:100240003F1D401F511F260F371F481F591FDA013E
:10025000C901320155244424540199248824CD8CA9
:10026000DE8CEF8CF8A0C40CD51CE61CF71C41E01A
:1002700050E060E070E0C414D504E604F70418F020
:1002800040E050E0BA01480F591F6A1F7B1FC80C9D
:10029000D91CEA1CFB1C81E090E0A0E0B0E0C8148F
:1002A000D904EA04FB0418F080E090E0DC01480F78
:1002B000591F6A1F7B1F0D811E812F813885C00E3B
:1002C000D11EE21EF31E81E090E0A0E0B0E0C01677
:1002D000D106E206F30618F080E090E0DC014C0164
:1002E0005D01840E951EA61EB71EAF89B88D0D91B7
:1002F0001D912D913C91C00ED11EE21EF31E41E0D6
:1003000050E060E070E0C016D106E206F30618F097
:1003100040E050E0BA018A019B01080D191D2A1D19
:100320003B1D0D831E832F833887AF89B88DCD92F7
:10033000DD92ED92FC92139784819581A681B7811D
:100340006C017D01EE24FF248D01222733270983D0
:100350001A832B833C832D853E854F855889C701A1
:10036000B6010E94BA322B013C0129853A854B85A2
:100370005C85C701B6010E94BA326D8F7E8F8F8F68
:1003800098A369817A818B819C810E94BA324B014A
:100390005C012D853E854F85588969817A818B81E5
:1003A0009C810E94BA32930144275527750100278A
:1003B00011272E0D3F1D401F511F260F371F481FAD
:1003C000591FDA01C90132015524442454019924EA
:1003D0008824CD8CDE8CEF8CF8A0C40CD51CE61CD8
:1003E000F71C41E050E060E070E0C414D504E6047E
:1003F000F70418F040E050E0BA01480F591F6A1F97
:100400007B1FC80CD91CEA1CFB1C81E090E0A0E01B
:10041000B0E0C814D904EA04FB0418F080E090E0CE
:10042000DC01480F591F6A1F7B1F0D811E812F8120
:100430003885C00ED11EE21EF31E81E090E0A0E0E0
:10044000B0E0C016D106E206F30618F080E090E0B6
:10045000DC014C015D01840E951EA61EB71EAF89FE
:10046000B88D14960D911D912D913C911797C00E4A
:10047000D11EE21EF31E41E050E060E070E0C016C5
:10048000D106E206F30618F040E050E0BA018A0116
:100490009B01080D191D2A1D3B1D0D831E832F83F3
:1004A0003887AF89B88D1496CD92DD92ED92FC928B
:1004B000179780859185A285B3856C017D01EE2417
:1004C000FF248D012227332709831A832B833C8342
:1004D0002D853E854F855889C701B6010E94BA32E5
:1004E0002B013C0129853A854B855C85C701B60106
:1004F0000E94BA326D8F7E8F8F8F98A369817A8127
:100500008B819C810E94BA324B015C012D853E8516
:100510004F85588969817A818B819C810E94BA328A
:100520009301442755277501002711272E0D3F1DE4
:10053000401F511F260F371F481F591FDA01C901DD
:10054000320155244424540199248824CD8CDE8C16
:10055000EF8CF8A0C40CD51CE61CF71C41E050E061
:1005600060E070E0C414D504E604F70418F040E03D
:1005700050E0BA01480F591F6A1F7B1FC80CD91CD5
:10058000EA1CFB1C81E090E0A0E0B0E0C814D904B4
:10059000EA04FB0418F080E090E0DC01480F591FEA
:1005A0006A1F7B1F0D811E812F813885C00ED11ED1
:1005B000E21EF31E81E090E0A0E0B0E0C016D1069C
:1005C000E206F30618F080E090E0DC014C015D01EA
:1005D000840E951EA61EB71EAF89B88D18960D9174
:1005E0001D912D913C911B97C00ED11EE21EF31E52
:1005F00041E050E060E070E0C016D106E206F3068C
:1006000018F040E050E0BA018A019B01080D191D65
:100610002A1D3B1D0D831E832F833887AF89B88D1C
:100620001896CD92DD92ED92FC921B97848595856C
:10063000A685B7856C017D01EE24FF248D0122275C
:10064000332709831A832B833C832D853E854F8571
:100650005889C701B6010E94BA322B013C01298595
:100660003A854B855C85C701B6010E94BA326D8F11
:100670007E8F8F8F98A369817A818B819C810E9464
:10068000BA324B015C012D853E854F8558896981C1
:100690007A818B819C810E94BA329301442755272D
:1006A0007501002711272E0D3F1D401F511F260FDA
:1006B000371F481F591FDA01C9013201552444244C
:1006C000540199248824CD8CDE8CEF8CF8A0C40CC6
:1006D000D51CE61CF71C41E050E060E070E0C4145B
:1006E000D504E604F70418F040E050E0BA01480FE2
:1006F000591F6A1F7B1FC80CD91CEA1CFB1C81E018
:1007000090E0A0E0B0E0C814D904EA04FB0418F0BB
:1007100080E090E0DC01480F591F6A1F7B1F0D81AC
:100720001E812F813885C00ED11EE21EF31E81E08E
:1007300090E0A0E0B0E0C016D106E206F30618F0A3
:1007400080E090E0DC014C015D01840E951EA61E48
:10075000B71EAF89B88D1C960D911D912D913C91BE
:100760001F97C00ED11EE21EF31E41E050E060E074
:1007700070E0C016D106E206F30618F040E050E043
:10078000BA018A019B01080D191D2A1D3B1D0D830D
:100790001E832F833887AF89B88D1C96CD92DD924A
:1007A000ED92FC921F9780899189A289B3896C018F
:1007B0007D01EE24FF248D012227332709831A832C
:1007C0002B833C832D853E854F855889C701B60113
:1007D0000E94BA322B013C0129853A854B855C8504
:1007E000C701B6010E94BA326D8F7E8F8F8F98A39A
:1007F00069817A818B819C810E94BA324B015C01B4
:100800002D853E854F85588969817A818B819C81B0
:100810000E94BA32930144275527750100271127FA
:100820002E0D3F1D401F511F260F371F481F591FF8
:10083000DA01C90132015524442454019924882441
:10084000CD8CDE8CEF8CF8A0C40CD51CE61CF71CFC
:1008500041E050E060E070E0C414D504E604F70421
:1008600018F040E050E0BA01480F591F6A1F7B1F83
:10087000C80CD91CEA1CFB1C81E090E0A0E0B0E0B1
:10088000C814D904EA04FB0418F080E090E0DC010D
:10089000480F591F6A1F7B1F0D811E812F813885CC
:1008A000C00ED11EE21EF31E81E090E0A0E0B0E099
:1008B000C016D106E206F30618F080E090E0DC01F5
:1008C0004C015D01840E951EA61EB71EAF89B88D22
:1008D00050960D911D912D913C915397C00ED11EB4
:1008E000E21EF31E41E050E060E070E0C016D10669
:1008F000E206F30618F040E050E0BA018A019B01DD
:10090000080D191D2A1D3B1D0D831E832F8338875B
:10091000AF89B88D5096CD92DD92ED92FC925397AF
:1009200084899589A689B7896C017D01EE24FF240D
:100930008D012227332709831A832B833C832D853E
:100940003E854F855889C701B6010E94BA322B01F6
:100950003C0129853A854B855C85C701B6010E941B
:10096000BA326D8F7E8F8F8F98A369817A818B8148
:100970009C810E94BA324B015C012D853E854F85DA
:10098000588969817A818B819C810E94BA32930156
:10099000442755277501002711272E0D3F1D401FA5
:1009A000511F260F371F481F591FDA01C901320195
:1009B00055244424540199248824CD8CDE8CEF8C5A
:1009C000F8A0C40CD51CE61CF71C41E050E060E028
:1009D00070E0C414D504E604F70418F040E050E0D9
:1009E000BA01480F591F6A1F7B1FC80CD91CEA1C8B
:1009F000FB1C81E090E0A0E0B0E0C814D904EA0458
:100A0000FB0418F080E090E0DC01480F591F6A1FDA
:100A10007B1F0D811E812F813885C00ED11EE21EE5
:100A2000F31E81E090E0A0E0B0E0C016D106E2063F
:100A3000F30618F080E090E0DC014C015D01840ECB
:100A4000951EA61EB71EAF89B88D54960D911D91A7
:100A50002D913C915797C00ED11EE21EF31E41E02E
:100A600050E060E070E0C016D106E206F30618F030
:100A700040E050E0BA018A019B01080D191D2A1DB2
:100A80003B1D0D831E832F833887AF89B88D549605
:100A9000CD92DD92ED92FC925797808D918DA28D33
:100AA000B38D6C017D01EE24FF248D0122273327B5
:100AB00009831A832B833C832D853E854F85588976
:100AC000C701B6010E94BA322B013C0129853A8543
:100AD0004B855C85C701B6010E94BA326D8F7E8F4F
:100AE0008F8F98A369817A818B819C810E94BA3211
:100AF0004B015C012D853E854F85588969817A813E
:100B00008B819C810E94BA3293014427552775013D
:100B1000002711272E0D3F1D401F511F260F371F85
:100B2000481F591FDA01C9013201552444245401D8
:100B300099248824CD8CDE8CEF8CF8A0C40CD51CB5
:100B4000E61CF71C41E050E060E070E0C414D504FE
:100B5000E604F70418F040E050E0BA01480F591FCE
:100B60006A1F7B1FC80CD91CEA1CFB1C81E090E0AB
:100B7000A0E0B0E0C814D904EA04FB0418F080E057
:100B800090E0DC01480F591F6A1F7B1F0D811E81F9
:100B90002F813885C00ED11EE21EF31E81E090E049
:100BA000A0E0B0E0C016D106E206F30618F080E03F
:100BB00090E0DC014C015D01840E951EA61EB71E5F
:100BC000AF89B88D58960D911D912D913C915B97F1
:100BD000C00ED11EE21EF31E41E050E060E070E066
:100BE000C016D106E206F30618F040E050E0BA0164
:100BF0008A019B01080D191D2A1D3B1D0D831E83B3
:100C00002F833887AF89B88D5896CD92DD92ED92BB
:100C1000FC925B97848D958DA68DB78D6C017D01BF
:100C2000EE24FF248D012227332709831A832B8387
:100C30003C832D853E854F855889C701B6010E94AA
:100C4000BA322B013C0129853A854B855C85C70169
:100C5000B6010E94BA326D8F7E8F8F8F98A3698103
:100C60007A818B819C810E94BA324B015C012D8577
:100C70003E854F85588969817A818B819C810E944C
:100C8000BA329301442755277501002711272E0DED
:100C90003F1D401F511F260F371F481F591FDA01E4
:100CA000C901320155244424540199248824CD8C4F
:100CB000DE8CEF8CF8A0C40CD51CE61CF71C41E0C0
:100CC00050E060E070E0C414D504E604F70418F0C6
:100CD00040E050E0BA01480F591F6A1F7B1FC80C43
:100CE000D91CEA1CFB1C81E090E0A0E0B0E0C81435
:100CF000D904EA04FB0418F080E090E0DC01480F1E
:100D0000591F6A1F7B1F0D811E812F813885C00EE0
:100D1000D11EE21EF31E81E090E0A0E0B0E0C0161C
:100D2000D106E206F30618F080E090E0DC014C0109
:100D30005D01840E951EA61EB71EAF89B88D5C9608
:100D40000D911D912D913C915F97C00ED11EE21E19
:100D5000F31E41E050E060E070E0C016D106E2060C
:100D6000F30618F040E050E0BA018A019B01080D3B
:100D7000191D2A1D3B1D0D831E832F833887AF89C4
:100D8000B88D5C96CD92DD92ED92FC925F9780A13A
:100D900091A1A2A1B3A16C017D01EE24FF248D01DC
:100DA0002227332709831A832B833C832D853E8595
:100DB0004F855889C701B6010E94BA322B013C0108
:100DC00029853A854B855C85C701B6010E94BA32F8
:100DD0006D8F7E8F8F8F98A369817A818B819C81A3
:100DE0000E94BA324B015C012D853E854F855889A2
:100DF00069817A818B819C810E94BA329301442758
:100E000055277501002711272E0D3F1D401F511F2B
:100E1000260F371F481F591FDA01C9013201552417
:100E20004424540199248824CD8CDE8CEF8CF8A0C6
:100E3000C40CD51CE61CF71C41E050E060E070E0FB
:100E4000C414D504E604F70418F040E050E0BA01F9
:100E5000480F591F6A1F7B1FC80CD91CEA1CFB1CBA
:100E600081E090E0A0E0B0E0C814D904EA04FB04FB
:100E700018F080E090E0DC01480F591F6A1F7B1FCB
:100E80000D811E812F813885C00ED11EE21EF31EFA
:100E900081E090E0A0E0B0E0C016D106E206F306E3
:100EA00018F080E090E0DC014C015D01840E951E9D
:100EB000A61EB71EAF89B88D90960D911D912D91EC
:100EC0003C919397C00ED11EE21EF31E41E050E00C
:100ED00060E070E0C016D106E206F30618F040E0CC
:100EE00050E0BA018A019B01080D191D2A1D3B1D06
:100EF0000D831E832F833887AF89B88D9096CD924E
:100F0000DD92ED92FC92939784A195A1A6A1B7A141
:100F10006C017D01EE24FF248D01222733270983F4
:100F20001A832B833C832D853E854F855889C701C5
:100F3000B6010E94BA322B013C0129853A854B85C6
:100F40005C85C701B6010E94BA326D8F7E8F8F8F8C
:100F500098A369817A818B819C810E94BA324B016E
:100F60005C012D853E854F85588969817A818B8109
:100F70009C810E94BA3293014427552775010027AE
:100F800011272E0D3F1D401F511F260F371F481FD1
:100F9000591FDA01C901320155244424540199240E
:100FA0008824CD8CDE8CEF8CF8A0C40CD51CE61CFC
:100FB000F71C41E050E060E070E0C414D504E604A2
:100FC000F70418F040E050E0BA01480F591F6A1FBB
:100FD0007B1FC80CD91CEA1CFB1C81E090E0A0E040
:100FE000B0E0C814D904EA04FB0418F080E090E0F3
:100FF000DC01480F591F6A1F7B1F0D811E812F8145
:101000003885C00ED11EE21EF31E81E090E0A0E004
:10101000B0E0C016D106E206F30618F080E090E0DA
:10102000DC014C015D01840E951EA61EB71EAF8922
:10103000B88D94960D911D912D913C919797C00E6E
:10104000D11EE21EF31E41E050E060E070E0C016E9
:10105000D106E206F30618F040E050E0BA018A013A
:101060009B01080D191D2A1D3B1D0D831E832F8317
:101070003887AF89B88D9496CD92DD92ED92FC922F
:10108000979780A591A5A2A5B3A56C017D01EE243B
:10109000FF248D012227332709831A832B833C8366
:1010A0002D853E854F855889C701B6010E94BA3209
:1010B0002B013C0129853A854B855C85C701B6012A
:1010C0000E94BA326D8F7E8F8F8F98A369817A814B
:1010D0008B819C810E94BA324B015C012D853E853B
:1010E0004F85588969817A818B819C810E94BA32AF
:1010F0009301442755277501002711272E0D3F1D09
:10110000401F511F260F371F481F591FDA01C90101
:10111000320155244424540199248824CD8CDE8C3A
:10112000EF8CF8A0C40CD51CE61CF71C41E050E085
:1011300060E070E0C414D504E604F70418F040E061
:1011400050E0BA01480F591F6A1F7B1FC80CD91CF9
:10115000EA1CFB1C81E090E0A0E0B0E0C814D904D8
:10116000EA04FB0418F080E090E0DC01480F591F0E
:101170006A1F7B1F0D811E812F813885C00ED11EF5
:10118000E21EF31E81E090E0A0E0B0E0C016D106C0
:10119000E206F30618F080E090E0DC014C015D010E
:1011A000840E951EA61EB71EAF89B88D98960D9118
:1011B0001D912D913C919B97C00ED11EE21EF31EF6
:1011C00041E050E060E070E0C016D106E206F306B0
:1011D00018F040E050E0BA018A019B01080D191D8A
:1011E0002A1D3B1D0D831E832F833887AF89B88D41
:1011F0009896CD92DD92ED92FC929B9784A595A551
:10120000A6A5B7A56C017D01EE24FF248D01222740
:10121000332709831A832B833C832D853E854F8595
:101220005889C701B6010E94BA322B013C012985B9
:101230003A854B855C85C701B6010E94BA326D8F35
:101240007E8F8F8F98A369817A818B819C810E9488
:10125000BA324B015C012D853E854F8558896981E5
:101260007A818B819C810E94BA3293014427552751
:101270007501002711272E0D3F1D401F511F260FFE
:10128000371F481F591FDA01C90132015524442470
:10129000540199248824CD8CDE8CEF8CF8A0C40CEA
:1012A000D51CE61CF71C41E050E060E070E0C4147F
:1012B000D504E604F70418F040E050E0BA01480F06
:1012C000591F6A1F7B1FC80CD91CEA1CFB1C81E03C
:1012D00090E0A0E0B0E0C814D904EA04FB0418F0E0
:1012E00080E090E0DC01480F591F6A1F7B1F0D81D1
:1012F0001E812F813885C00ED11EE21EF31E81E0B3
:1013000090E0A0E0B0E0C016D106E206F30618F0C7
:1013100080E090E0DC014C015D01840E951EA61E6C
:10132000B71EAF89B88D9C960D911D912D913C9162
:101330009F97C00ED11EE21EF31E41E050E060E018
:1013400070E0C016D106E206F30618F040E050E067
:10135000BA018A019B01080D191D2A1D3B1D0D8331
:101360001E832F833887AF89B88D9C96CD92DD92EE
:10137000ED92FC929F9780A991A9A2A9B3A96C01B3
:101380007D01EE24FF248D012227332709831A8350
:101390002B833C832D853E854F855889C701B60137
:1013A0000E94BA322B013C0129853A854B855C8528
:1013B000C701B6010E94BA326D8F7E8F8F8F98A3BE
:1013C00069817A818B819C810E94BA324B015C01D8
:1013D0002D853E854F85588969817A818B819C81D5
:1013E0000E94BA329301442755277501002711271F
:1013F0002E0D3F1D401F511F260F371F481F591F1D
:10140000DA01C90132015524442454019924882465
:10141000CD8CDE8CEF8CF8A0C40CD51CE61CF71C20
:1014200041E050E060E070E0C414D504E604F70445
:1014300018F040E050E0BA01480F591F6A1F7B1FA7
:10144000C80CD91CEA1CFB1C81E090E0A0E0B0E0D5
:10145000C814D904EA04FB0418F080E090E0DC0131
:10146000480F591F6A1F7B1F0D811E812F813885F0
:10147000C00ED11EE21EF31E81E090E0A0E0B0E0BD
:10148000C016D106E206F30618F080E090E0DC0119
:101490004C015D01840E951EA61EB71EAF89B88D46
:1014A000D0960D911D912D913C91D397C00ED11ED8
:1014B000E21EF31E41E050E060E070E0C016D1068D
:1014C000E206F30618F040E050E0BA018A019B0101
:1014D000080D191D2A1D3B1D0D831E832F83388780
:1014E000AF89B88DD096CD92DD92ED92FC92D397D4
:1014F00084A995A9A6A9B7A96C017D01EE24FF24B2
:101500008D012227332709831A832B833C832D8562
:101510003E854F855889C701B6010E94BA322B011A
:101520003C0129853A854B855C85C701B6010E943F
:10153000BA326D8F7E8F8F8F98A369817A818B816C
:101540009C810E94BA324B015C012D853E854F85FE
:10155000588969817A818B819C810E94BA3293017A
:10156000442755277501002711272E0D3F1D401FC9
:10157000511F260F371F481F591FDA01C9013201B9
:1015800055244424540199248824CD8CDE8CEF8C7E
:10159000F8A0C40CD51CE61CF71C41E050E060E04C
:1015A00070E0C414D504E604F70418F040E050E0FD
:1015B000BA01480F591F6A1F7B1FC80CD91CEA1CAF
:1015C000FB1C81E090E0A0E0B0E0C814D904EA047C
:1015D000FB0418F080E090E0DC01480F591F6A1FFF
:1015E0007B1F0D811E812F813885C00ED11EE21E0A
:1015F000F31E81E090E0A0E0B0E0C016D106E20664
:10160000F30618F080E090E0DC014C015D01840EEF
:10161000951EA61EB71EAF89B88DD4960D911D914B
:101620002D913C91D797C00ED11EE21EF31E41E0D2
:1016300050E060E070E0C016D106E206F30618F054
:1016400040E050E0BA018A019B01080D191D2A1DD6
:101650003B1D0D831E832F833887AF89B88DD496A9
:10166000CD92DD92ED92FC92D79780AD91ADA2AD77
:10167000B3AD6C017D01EE24FF248D0122273327B9
:1016800009831A832B833C832D853E854F8558899A
:10169000C701B6010E94BA322B013C0129853A8567
:1016A0004B855C85C701B6010E94BA326D8F7E8F73
:1016B0008F8F98A369817A818B819C810E94BA3235
:1016C0004B015C012D853E854F85588969817A8162
:1016D0008B819C810E94BA32930144275527750162
:1016E000002711272E0D3F1D401F511F260F371FAA
:1016F000481F591FDA01C9013201552444245401FD
:1017000099248824CD8CDE8CEF8CF8A0C40CD51CD9
:10171000E61CF71C41E050E060E070E0C414D50422
:10172000E604F70418F040E050E0BA01480F591FF2
:101730006A1F7B1FC80CD91CEA1CFB1C81E090E0CF
:10174000A0E0B0E0C814D904EA04FB0418F080E07B
:1017500090E0DC01480F591F6A1F7B1F0D811E811D
:101760002F813885C00ED11EE21EF31E81E090E06D
:10177000A0E0B0E0C016D106E206F30618F080E063
:1017800090E0DC014C015D01840E951EA61EB71E83
:10179000AF89B88DD8960D911D912D913C91DB9715
:1017A000C00ED11EE21EF31E41E050E060E070E08A
:1017B000C016D106E206F30618F040E050E0BA0188
:1017C0008A019B01080D191D2A1D3B1D0D831E83D7
:1017D0002F833887AF89B88DD896CD92DD92ED9260
:1017E000FC92DB9784AD95ADA6ADB7AD6C017D01E4
:1017F000EE24FF248D012227332709831A832B83AC
:101800003C83E05CFF4F2D853E854F855889C7019D
:10181000B6010E94BA322B013C0129853A854B85DD
:101820005C85C701B6010E94BA326D8F7E8F8F8FA3
:1018300098A369817A818B819C810E94BA324B0185
:101840005C012D853E854F85588969817A818B8120
:101850009C810E94BA3293014427552775010027C5
:1018600011272E0D3F1D401F511F260F371F481FE8
:10187000591FDA01C9013201552444245401992425
:101880008824CD8CDE8CEF8CF8A0C40CD51CE61C13
:10189000F71C41E050E060E070E0C414D504E604B9
:1018A000F70418F040E050E0BA01480F591F6A1FD2
:1018B0007B1FC80CD91CEA1CFB1C81E090E0A0E057
:1018C000B0E0C814D904EA04FB0418F080E090E00A
:1018D000DC01480F591F6A1F7B1F0D811E812F815C
:1018E0003885C00ED11EE21EF31E81E090E0A0E01C
:1018F000B0E0C016D106E206F30618F080E090E0F2
:10190000DC01480F591F6A1F7B1FAF89B88DDC9619
:101910000D911D912D913C91DF97C00ED11EE21EBD
:10192000F31E81E090E0A0E0B0E0C016D106E20630
:10193000F30618F080E090E0DC018C019D01040FBB
:10194000151F261F371F0D831E832F833887AF89EE
:10195000B88DDC96CD92DD92ED92FC92DF97B0E1EE
:101960002B1A31080F89188D005C1F4F188F0F8BB1
:101970000C94DC0009891A892B893C89222733279A
:1019800009871A872B873C87EF88F88CFE8AED8AB7
:1019900008E0201631040CF4EEC580819181A2810B
:1019A000B3816C017D01EE24FF248D0122273327B2
:1019B00009831A832B833C832D853E854F85588967
:1019C000C701B6010E94BA322B013C0129853A8534
:1019D0004B855C85C701B6010E94BA326D8F7E8F40
:1019E0008F8F98A369817A818B819C810E94BA3202
:1019F0004B015C012D853E854F85588969817A812F
:101A00008B819C810E94BA3293014427552775012E
:101A1000002711272E0D3F1D401F511F260F371F76
:101A2000481F591FDA01C9013201552444245401C9
:101A300099248824CD8CDE8CEF8CF8A0C40CD51CA6
:101A4000E61CF71C41E050E060E070E0C414D504EF
:101A5000E604F70418F040E050E0BA01480F591FBF
:101A60006A1F7B1FC80CD91CEA1CFB1C81E090E09C
:101A7000A0E0B0E0C814D904EA04FB0418F080E048
:101A800090E0DC01480F591F6A1F7B1F0D811E81EA
:101A90002F813885C00ED11EE21EF31E81E090E03A
:101AA000A0E0B0E0C016D106E206F30618F080E030
:101AB00090E0DC014C015D01840E951EA61EB71E50
:101AC000AF89B88D0D911D912D913C91C00ED11E05
:101AD000E21EF31E41E050E060E070E0C016D10667
:101AE000E206F30618F040E050E0BA018A019B01DB
:101AF000080D191D2A1D3B1D0D831E832F8338875A
:101B0000AF89B88DCD92DD92ED92FC9213978481CE
:101B10009581A681B7816C017D01EE24FF248D01A2
:101B20002227332709831A832B833C832D853E8507
:101B30004F855889C701B6010E94BA322B013C017A
:101B400029853A854B855C85C701B6010E94BA326A
:101B50006D8F7E8F8F8F98A369817A818B819C8115
:101B60000E94BA324B015C012D853E854F85588914
:101B700069817A818B819C810E94BA3293014427CA
:101B800055277501002711272E0D3F1D401F511F9E
:101B9000260F371F481F591FDA01C901320155248A
:101BA0004424540199248824CD8CDE8CEF8CF8A039
:101BB000C40CD51CE61CF71C41E050E060E070E06E
:101BC000C414D504E604F70418F040E050E0BA016C
:101BD000480F591F6A1F7B1FC80CD91CEA1CFB1C2D
:101BE00081E090E0A0E0B0E0C814D904EA04FB046E
:101BF00018F080E090E0DC01480F591F6A1F7B1F3E
:101C00000D811E812F813885C00ED11EE21EF31E6C
:101C100081E090E0A0E0B0E0C016D106E206F30655
:101C200018F080E090E0DC014C015D01840E951E0F
:101C3000A61EB71EAF89B88D14960D911D912D91DA
:101C40003C911797C00ED11EE21EF31E41E050E0FA
:101C500060E070E0C016D106E206F30618F040E03E
:101C600050E0BA018A019B01080D191D2A1D3B1D78
:101C70000D831E832F833887AF89B88D1496CD923C
:101C8000DD92ED92FC92179780859185A285B385B0
:101C90006C017D01EE24FF248D0122273327098367
:101CA0001A832B833C832D853E854F855889C70138
:101CB000B6010E94BA322B013C0129853A854B8539
:101CC0005C85C701B6010E94BA326D8F7E8F8F8FFF
:101CD00098A369817A818B819C810E94BA324B01E1
:101CE0005C012D853E854F85588969817A818B817C
:101CF0009C810E94BA329301442755277501002721
:101D000011272E0D3F1D401F511F260F371F481F43
:101D1000591FDA01C9013201552444245401992480
:101D20008824CD8CDE8CEF8CF8A0C40CD51CE61C6E
:101D3000F71C41E050E060E070E0C414D504E60414
:101D4000F70418F040E050E0BA01480F591F6A1F2D
:101D50007B1FC80CD91CEA1CFB1C81E090E0A0E0B2
:101D6000B0E0C814D904EA04FB0418F080E090E065
:101D7000DC01480F591F6A1F7B1F0D811E812F81B7
:101D80003885C00ED11EE21EF31E81E090E0A0E077
:101D9000B0E0C016D106E206F30618F080E090E04D
:101DA000DC014C015D01840E951EA61EB71EAF8995
:101DB000B88D18960D911D912D913C911B97C00ED9
:101DC000D11EE21EF31E41E050E060E070E0C0165C
:101DD000D106E206F30618F040E050E0BA018A01AD
:101DE0009B01080D191D2A1D3B1D0D831E832F838A
:101DF0003887AF89B88D1896CD92DD92ED92FC921E
:101E00001B9784859585A685B7856C017D01EE2499
:101E1000FF248D012227332709831A832B833C83D8
:101E20002D853E854F855889C701B6010E94BA327B
:101E30002B013C0129853A854B855C85C701B6019C
:101E40000E94BA326D8F7E8F8F8F98A369817A81BD
:101E50008B819C810E94BA324B015C012D853E85AD
:101E60004F85588969817A818B819C810E94BA3221
:101E70009301442755277501002711272E0D3F1D7B
:101E8000401F511F260F371F481F591FDA01C90174
:101E9000320155244424540199248824CD8CDE8CAD
:101EA000EF8CF8A0C40CD51CE61CF71C41E050E0F8
:101EB00060E070E0C414D504E604F70418F040E0D4
:101EC00050E0BA01480F591F6A1F7B1FC80CD91C6C
:101ED000EA1CFB1C81E090E0A0E0B0E0C814D9044B
:101EE000EA04FB0418F080E090E0DC01480F591F81
:101EF0006A1F7B1F0D811E812F813885C00ED11E68
:101F0000E21EF31E81E090E0A0E0B0E0C016D10632
:101F1000E206F30618F080E090E0DC014C015D0180
:101F2000840E951EA61EB71EAF89B88D1C960D9106
:101F30001D912D913C911F97C00ED11EE21EF31EE4
:101F400041E050E060E070E0C016D106E206F30622
:101F500018F040E050E0BA018A019B01080D191DFC
:101F60002A1D3B1D0D831E832F833887AF89B88DB3
:101F70001C96CD92DD92ED92FC921F9780899189FB
:101F8000A289B3896C017D01EE24FF248D012227F3
:101F9000332709831A832B833C832D853E854F8508
:101FA0005889C701B6010E94BA322B013C0129852C
:101FB0003A854B855C85C701B6010E94BA326D8FA8
:101FC0007E8F8F8F98A369817A818B819C810E94FB
:101FD000BA324B015C012D853E854F855889698158
:101FE0007A818B819C810E94BA32930144275527C4
:101FF0007501002711272E0D3F1D401F511F260F71
:10200000371F481F591FDA01C901320155244424E2
:10201000540199248824CD8CDE8CEF8CF8A0C40C5C
:10202000D51CE61CF71C41E050E060E070E0C414F1
:10203000D504E604F70418F040E050E0BA01480F78
:10204000591F6A1F7B1FC80CD91CEA1CFB1C81E0AE
:1020500090E0A0E0B0E0C814D904EA04FB0418F052
:1020600080E090E0DC01480F591F6A1F7B1F0D8143
:102070001E812F813885C00ED11EE21EF31E81E025
:1020800090E0A0E0B0E0C016D106E206F30618F03A
:1020900080E090E0DC014C015D01840E951EA61EDF
:1020A000B71EAF89B88D50960D911D912D913C9121
:1020B0005397C00ED11EE21EF31E41E050E060E0D7
:1020C00070E0C016D106E206F30618F040E050E0DA
:1020D000BA018A019B01080D191D2A1D3B1D0D83A4
:1020E0001E832F833887AF89B88D5096CD92DD92AD
:1020F000ED92FC92539784899589A689B7896C01E2
:102100007D01EE24FF248D012227332709831A83C2
:102110002B833C832D853E854F855889C701B601A9
:102120000E94BA322B013C0129853A854B855C859A
:10213000C701B6010E94BA326D8F7E8F8F8F98A330
:1021400069817A818B819C810E94BA324B015C014A
:102150002D853E854F85588969817A818B819C8147
:102160000E94BA3293014427552775010027112791
:102170002E0D3F1D401F511F260F371F481F591F8F
:10218000DA01C901320155244424540199248824D8
:10219000CD8CDE8CEF8CF8A0C40CD51CE61CF71C93
:1021A00041E050E060E070E0C414D504E604F704B8
:1021B00018F040E050E0BA01480F591F6A1F7B1F1A
:1021C000C80CD91CEA1CFB1C81E090E0A0E0B0E048
:1021D000C814D904EA04FB0418F080E090E0DC01A4
:1021E000480F591F6A1F7B1F0D811E812F81388563
:1021F000C00ED11EE21EF31E81E090E0A0E0B0E030
:10220000C016D106E206F30618F080E090E0DC018B
:102210004C015D01840E951EA61EB71EAF89B88DB8
:1022200054960D911D912D913C915797C00ED11E42
:10223000E21EF31E41E050E060E070E0C016D106FF
:10224000E206F30618F040E050E0BA018A019B0173
:10225000080D191D2A1D3B1D0D831E832F833887F2
:10226000AF89B88D5496CD92DD92ED92FC9257973E
:10227000808D918DA28DB38D6C017D01EE24FF24A4
:102280008D012227332709831A832B833C832D85D5
:102290003E854F855889C701B6010E94BA322B018D
:1022A0003C0129853A854B855C85C701B6010E94B2
:1022B000BA326D8F7E8F8F8F98A369817A818B81DF
:1022C0009C810E94BA324B015C012D853E854F8571
:1022D000588969817A818B819C810E94BA329301ED
:1022E000442755277501002711272E0D3F1D401F3C
:1022F000511F260F371F481F591FDA01C90132012C
:1023000055244424540199248824CD8CDE8CEF8CF0
:10231000F8A0C40CD51CE61CF71C41E050E060E0BE
:1023200070E0C414D504E604F70418F040E050E06F
:10233000BA01480F591F6A1F7B1FC80CD91CEA1C21
:10234000FB1C81E090E0A0E0B0E0C814D904EA04EE
:10235000FB0418F080E090E0DC01480F591F6A1F71
:102360007B1F0D811E812F813885C00ED11EE21E7C
:10237000F31E81E090E0A0E0B0E0C016D106E206D6
:10238000F30618F080E090E0DC014C015D01840E62
:10239000951EA61EB71EAF89B88D58960D911D913A
:1023A0002D913C915B97C00ED11EE21EF31E41E0C1
:1023B00050E060E070E0C016D106E206F30618F0C7
:1023C00040E050E0BA018A019B01080D191D2A1D49
:1023D0003B1D0D831E832F833887AF89B88D589698
:1023E000CD92DD92ED92FC925B97848D958DA68DBA
:1023F000B78D6C017D01EE24FF248D012227332748
:1024000009831A832B833C83B0962D853E854F85A7
:102410005889C701B6010E94BA322B013C012985B7
:102420003A854B855C85C701B6010E94BA326D8F33
:102430007E8F8F8F98A369817A818B819C810E9486
:10244000BA324B015C012D853E854F8558896981E3
:102450007A818B819C810E94BA329301442755274F
:102460007501002711272E0D3F1D401F511F260FFC
:10247000371F481F591FDA01C9013201552444246E
:10248000540199248824CD8CDE8CEF8CF8A0C40CE8
:10249000D51CE61CF71C41E050E060E070E0C4147D
:1024A000D504E604F70418F040E050E0BA01480F04
:1024B000591F6A1F7B1FC80CD91CEA1CFB1C81E03A
:1024C00090E0A0E0B0E0C814D904EA04FB0418F0DE
:1024D00080E090E0DC01480F591F6A1F7B1F0D81CF
:1024E0001E812F813885C00ED11EE21EF31E81E0B1
:1024F00090E0A0E0B0E0C016D106E206F30618F0C6
:1025000080E090E0DC01480F591F6A1F7B1FAF89F4
:10251000B88D5C960D911D912D913C915F97C00EE9
:10252000D11EE21EF31E81E090E0A0E0B0E0C016F4
:10253000D106E206F30618F080E090E0DC018C01A1
:102540009D01040F151F261F371F0D831E832F8328
:102550003887AF89B88D5C96CD92DD92ED92FC9272
:102560005F97B8E02B1A31080F89188D005E1F4F56
:10257000188F0F8B09CA3A86298609891A892B89EF
:102580003C8922273327098B1A8B2B8B3C8BE984C0
:10259000FA841E141F040CF0C2C081919191A19184
:1025A000B1916C017D01EE24FF248D012227332798
:1025B00009831A832B833C832D853E854F8558895B
:1025C000C701B6010E94BA322B013C0129893A8920
:1025D0004B895C89C701B6010E94BA326D8F7E8F2C
:1025E0008F8F98A369817A818B819C810E94BA32F6
:1025F0004B015C012D853E854F85588969817A8123
:102600008B819C810E94BA32930144275527750122
:10261000002711272E0D3F1D401F511F260F371F6A
:10262000481F591FDA01C9013201552444245401BD
:1026300099248824CD8CDE8CEF8CF8A0C40CD51C9A
:10264000E61CF71C41E050E060E070E0C414D504E3
:10265000E604F70418F040E050E0BA01480F591FB3
:102660006A1F7B1FC80CD91CEA1CFB1C81E090E090
:10267000A0E0B0E0C814D904EA04FB0418F080E03C
:1026800090E0DC01480F591F6A1F7B1F0D811E81DE
:102690002F813885C00ED11EE21EF31E81E090E02E
:1026A000A0E0B0E0C016D106E206F30618F080E024
:1026B00090E0DC014C015D01840E951EA61EB71E44
:1026C000AF89B88D0D911D912D913C91C00ED11EF9
:1026D000E21EF31E41E050E060E070E0C016D1065B
:1026E000E206F30618F040E050E0BA018A019B01CF
:1026F000080D191D2A1D3B1D0D831E832F8338874E
:10270000AF89B88DCD92DD92ED92FD92B88FAF8BEF
:1027100009851A85015011091A87098738CFF101F7
:1027200037FE02C0E0E0F0E0EE0FFF1FEE0FFF1FEC
:102730000D891E89E00FF11F80819181A281B381F3
:10274000ED80FE800F8118858E0D9F1DA01FB11F8B
:1027500080839183A283B38341E08E159F05A007F8
:10276000B10708F040E050E060E070E034960D8181
:102770001E812F81388580179107A207B30728F49F
:102780004D835E836F837887D7CFA0960FB6F8947A
:10279000DEBF0FBECDBFDF91CF911F910F91FF9094
:1027A000EF90DF90CF90BF90AF909F908F907F90F1
:1027B0006F905F904F903F902F9008954F925F924F
:1027C0006F927F928F929F92AF92BF92CF92DF9241
:1027D000EF92FF920F931F93FB01DA0100E010E0EC
:1027E000980160E070E068177907CCF5CD90DD9036
:1027F000ED90FC901397412C512C32014394C0165C
:10280000D106E206F30618F0412C512C3201C01A11
:10281000D10AE20AF30ACD92DD92ED92FC9213976F
:1028200081909190A190B19001E010E020E030E023
:10283000C814D904EA04FB0418F000E010E0980181
:10284000040D151D261D371DC818D908EA08FB08F8
:10285000CD92DD92ED92FD926F5F7F4FC4CF97FFD7
:1028600002C080E090E0880F991F880F991FFA013D
:10287000E80FF91F0115110521053105C1F080810F
:102880009181A281B38141E080179107A207B3072C
:1028900008F040E0801B910BA20BB30B8193919346
:1028A000A193B193042F10E020E030E0E3CF1F911B
:1028B0000F91FF90EF90DF90CF90BF90AF909F90DF
:1028C0008F907F906F905F904F9008958F929F921E
:1028D000AF92BF92CF92DF92EF92FF92CF93DF93AE
:1028E000FC01EB012281338121503109C901880F9C
:1028F000991F880F991F37FD10C0A481B581A80FBB
:10290000B91F4D915D916D917C910497452B462B9C
:10291000472B19F421503109EECF4A815B81415098
:102920005109CA01880F991F880F991F57FD5CC074
:102930006C817D81DB01A80FB91FCD90DD90ED90FA
:10294000FC900497CD28CE28CF2819F44150510986
:10295000EDCFA081B18137FD1CC0421753071CF495
:102960008081918145C0241735079CF0CD014881B5
:1029700059811A161B0614F457FD30C0141615069B
:1029800014F4B7FD2EC0A901440F551F440F551F65
:1029900022C0882799278A1B9B0B2AC0C481D58116
:1029A000C40FD51F88809980AA80BB80EB01C40F1B
:1029B000D51FC880D980EA80FB80C814D904EA04F6
:1029C000FB04B0F0445051098C149D04AE04BF04C4
:1029D00000F32150310937FFE1CF08C081E090E0DA
:1029E00007C08FEF9FEF04C037FFBACF80E090E0C1
:1029F000DF91CF91FF90EF90DF90CF90BF90AF909D
:102A00009F908F900895CF92DF92EF92FF92CF9395
:102A1000DF93FC012281338121503109C901880FE4
:102A2000991F880F991F37FD0DC0A481B581A80F8C
:102A3000B91FCD90DD90ED90FC900497CD28CE2865
:102A4000CF2869F0DB0112964D915C9113974150AC
:102A50005109CA01880F991F880F991F16C021506C
:102A60003109E1CFDB011496CD91DC911597DE01A0
:102A7000A80FB91FCD90DD90ED90FC900497CD2864
:102A8000CE28CF2829F44150510957FFEBCF37C04A
:102A900037FD32C04217530764F12417350764F13C
:102AA000A901440F551F440F551F37FD1FC0A481B6
:102AB000B581A40FB51FCD90DD90ED90FC90DE01A7
:102AC000A40FB51F8D919D910D90BC91A02D8C15DB
:102AD0009D05AE05BF0568F044505109C816D906DA
:102AE000EA06FB0648F021503109DFCF80E090E094
:102AF0000CC081E090E009C08FEF9FEF06C0832FEC
:102B00008095881F8827881F90E0DF91CF91FF90E4
:102B1000EF90DF90CF900895CF92DF92EF92FF92E7
:102B2000CF93DF93DC0112962D913C9113972150A6
:102B30003109A901440F551F440F551F1496ED91FB
:102B4000FC9115971216130684F4EF01C40FD51FDC
:102B5000C880D980EA80FB8044505109CD28CE2816
:102B6000CF2819F421503109E9CFC901880F991FE5
:102B7000880F991FE80FF91F40815181628173818D
:102B80008FE190E06A017B01082E04C0F694E7947F
:102B9000D794C7940A94D2F7C0FC02C0019790F76B
:102BA00045E0220F331F4A95E1F7820F931F0196EC
:102BB000DF91CF91FF90EF90DF90CF900895AF928B
:102BC000BF92CF92DF92EF92FF920F931F93CF931A
:102BD000DF93FC01E280F380E616F70674F58B01C3
:102BE000EC015B01AA0CBB1CAA0CBB1CC5010E941A
:102BF00074336C01009721F1A50160E070E00E9440
:102C0000A234AC80BD80A114B10499F0EE0CFF1C7D
:102C1000EE0CFF1CA701B501C6010E949934A70163
:102C200060E070E0C5010E94A2348C819D810E9409
:102C30000C341B830A83DD82CC8280E090E002C0EA
:102C400081E090E0DF91CF911F910F91FF90EF9085
:102C5000DF90CF90BF90AF9008954F925F926F92A8
:102C60007F928F929F92AF92BF92CF92DF92EF921C
:102C7000FF920F931F93CF93DF937C018B01EB01A6
:102C800077FD6F96F5E0D595C795FA95E1F7680160
:102C90008FE1C822DD24C7013FDF800F911FD701DC
:102CA00012962D913C911397A5E0220F331FAA9500
:102CB000E1F72817390724F01C161D06BCF011C0D7
:102CC000BC01615E7F4F77FF02C0615E7F4FE5E030
:102CD00075956795EA95E1F7C70171DF009761F394
:102CE00088C0C114D10409F049C045C0F701228150
:102CF0003381C9010197F901EE0FFF1FEE0FFF1F8E
:102D00002C1B3D0B220F331F220F331F60E070E09E
:102D1000645071098C179D07C4F0D70114964D912A
:102D20005C911597460F571FDA01A20FB31F8D90C4
:102D30009D90AD90BC90DA01AE0FBF1F8D929D9219
:102D4000AD92BC9213970197E3CF9C01220F331FE2
:102D5000220F331F97FDC5CFD7011496ED91FC913B
:102D60001597E20FF31F10821182128213820197CE
:102D700024503109EFCF80E090E03BC0F701A28101
:102D8000B381CE01880F991F880F991F412C512CB8
:102D9000320120E230E02C193D09CA17DB075CF74D
:102DA000F70144815581FA01E80FF91F8080918075
:102DB000A280B380B501A4010C2C04C0440F551FA0
:102DC000661F771F0A94D2F7442955296629772967
:102DD00040835183628373832196049624013501D5
:102DE000022E04C076946794579447940A94D2F7BD
:102DF000D4CFDF91CF911F910F91FF90EF90DF9093
:102E0000CF90BF90AF909F908F907F906F905F908A
:102E10004F900895EF92FF920F931F93CF93DF93FC
:102E2000EC018B0161E070E0CADE7C01892B31F599
:102E30004A815B81440F551F440F551F60E070E0CD
:102E40008C819D810E94A234EC81FD81C80117FF15
:102E500004C088279927801B910B092E000CAA0B10
:102E6000BB0B80839183A283B38317FD03C081E0F2
:102E700090E002C08FEF9FEF99838883C701DF91B5
:102E8000CF911F910F91FF90EF900895CF92DF9215
:102E9000EF92FF920F931F93CF93DF9386179707BD
:102EA00009F44FC0DB0112964D915C91139741508C
:102EB00051099A01220F331F220F331F14161506D2
:102EC0008CF4DB011496ED91FC911597E20FF31F42
:102ED000C080D180E280F38024503109CD28CE28F3
:102EE000CF2861F17B018C01EA012196FB018081F1
:102EF0009181D8018D939C93BE01C80160DE00973B
:102F000011F5F80142815381440F551F440F551F9D
:102F100060E070E0848195810E94A234AE01440F8C
:102F2000551F440F551FD70114966D917C9115972D
:102F3000F801848195810E94993403C04150510960
:102F4000BDCF80E090E0DF91CF911F910F91FF9076
:102F5000EF90DF90CF9008952F923F924F925F9223
:102F60006F927F928F929F92AF92BF92CF92DF9299
:102F7000EF92FF920F931F93CF93DF9300D000D077
:102F8000CDB7DEB71C017A018417950741F086178B
:102F9000970731F07BDF5C01892B11F0C1C07B0109
:102FA000D70112960D911C91139701501109C80178
:102FB000880F991F880F991F17FD10C0D70114960D
:102FC000ED91FC911597E80FF91F408151816281C5
:102FD00073810497452B462B472BB9F0B8016F5FDF
:102FE0007F4FC101ECDD5C01892B09F099C0F7012D
:102FF00084809580D1011496ED91FC911597C12C98
:10300000D12C760180E090E048C001501109D4CF66
:1030100040815181628173814C0D5D1D6E1D7F1D4C
:10302000408351836283738321E04C155D056E05F7
:103030007F0508F020E0C22ED12CE12CF12CC982B2
:10304000DA82EB82FC82D401CD90DD90ED90FC9091
:1030500013974C0D5D1D6E1D7F1D41935193619320
:103060007193C12CD12C7601C3944D905D906D90DD
:103070007C90441555056605770518F0C12CD12CB8
:10308000760129813A814B815C81C20ED31EE41EF8
:10309000F51E019634E0830E911C9F010817190755
:1030A0000CF0B6CF8C01000F111F000F111FC114BF
:1030B000D104E104F104A1F1D10112964D915C918A
:1030C0001397FC0131963F018417950764F0BF0107
:1030D000C10175DD009719F5D10114962D913C9130
:1030E0001597200F311FF90180819181A281B38151
:1030F0008C0D9D1DAE1DBF1D80839183A283B38364
:1031000041E08C159D05AE05BF0508F040E0C42EDA
:10311000D12CE12CF12CC3010C5F1F4FC8CF5C01F7
:10312000C50126960FB6F894DEBF0FBECDBFDF9166
:10313000CF911F910F91FF90EF90DF90CF90BF90B4
:10314000AF909F908F907F906F905F904F903F9047
:103150002F900895CF92DF92EF92FF920F931F93DB
:10316000CF93DF93CDB7DEB7FE013C96019111916D
:103170007F01CC24C394D12C0115110511F1F80164
:1031800084819581009779F042815381440F551FC6
:10319000440F551F60E070E00E94A234F801848162
:1031A00095810E940C34F801D182C0821382128270
:1031B00015821482F70100811181C70102967C01FA
:1031C000DBCFDF91CF911F910F91FF90EF90DF90B8
:1031D000CF900895CF93DF93CDB7DEB7FE0136963B
:1031E000A191B19181E090E0109771F011969C93BC
:1031F0008E9313961C921E92129715961C921E92F5
:103200001497A191B191F0CFDF91CF9108954F9292
:103210005F926F927F928F929F92AF92BF92CF9266
:10322000DF92EF92FF920F931F93CF93DF9300D023
:1032300000D0CDB7DEB75C014B017A01BA01C40101
:10324000E2DB97FD4FC01F921F92CE0101966C01E9
:103250009F938F93BFDF0F900F900F900F90EA1402
:10326000FB0439F4B701C60111DE8C01892B79F515
:1032700076018A149B0451F4F701828193810197AE
:103280009C01220F331F220F331F15C0B401C5014B
:10329000FDDD8C01892BD9F4EFCFFB01E20FF31F89
:1032A000408051806280738024503109452846282F
:1032B000472831F40197F7016481758197FFEDCFBD
:1032C000F50144815581019679DA00E010E01F9202
:1032D0001F92DF92CF923EDF0F900F900F900F90D2
:1032E000C80102C086EF9FEF26960FB6F894DEBFA6
:1032F0000FBECDBFDF91CF911F910F91FF90EF9047
:10330000DF90CF90BF90AF909F908F907F906F9005
:103310005F904F900895CF92DF92EF92FF920F93BC
:103320001F93CF93DF93EC017B016A01FB010081C6
:103330001181FA0120813181029FC001039F900D0C
:10334000129F900D112418161906A4F4BA01C70192
:103350005ADB97FD05C0A601B701CE0158DF0CC0AE
:10336000A701B601CE0153DF009751F411950195E5
:10337000110904C0CE01F0DD009711F41983088310
:10338000DF91CF911F910F91FF90EF90DF90CF9041
:103390000895CF92DF92EF92FF920F931F93CF93F6
:1033A000DF93EC017B016A01FB0100811181FA01CD
:1033B00020813181029FC001039F900D129F900DCB
:1033C000112497FF14C0BA01C7011DDB97FD05C08A
:1033D000A601B701CE011BDF0CC0A701B601CE01CB
:1033E00016DF009751F411950195110904C0CE0123
:1033F000B3DD009711F419830883DF91CF911F91FA
:103400000F91FF90EF90DF90CF900895089580E0A6
:1034100090E00895FC01538D448D252F30E0842FDA
:1034200090E0821B930B541710F0CF9608950197EC
:103430000895FC01918D828D981761F0828DDF01D6
:10344000A80FB11D5D968C91928D9F5F9F73928F97
:1034500090E008958FEF9FEF0895FC01918D828D8C
:10346000981731F0828DE80FF11D858D90E0089559
:103470008FEF9FEF0895FC01918D228D892F90E0B1
:10348000805C9F4F821B91098F739927089580E07C
:1034900090E0892B21F00E947F23811125C080E0DC
:1034A00090E0892B41F080E090E0892B21F00E9490
:1034B000000081111CC080E090E0892B41F080E089
:1034C00090E0892B21F00E940000811113C080E060
:1034D00090E0892BA1F080E090E0892B81F00E94A0
:1034E000000081110AC008950E940000D8CF0E94F8
:1034F0000000E1CF0E940000EACF0C940000089584
:10350000FC01848DDF01A80FB11DA35ABF4F2C9180
:10351000848D90E001968F739927848FA689B7894F
:103520002C93A089B1898C91837080648C93938D46
:10353000848D981306C00288F389E02D80818F7DE9
:1035400080830895EF92FF920F931F93CF93DF93A1
:10355000EC0181E0888F9B8D8C8D981305C0E889E4
:10356000F989808185FD25C0F62E0B8D10E00F5F57
:103570001F4F0F731127E02E8C8DE8120BC00FB672
:1035800007FCFACFE889F989808185FFF5CFCE0164
:10359000B7DFF2CF8B8DFE01E80FF11DE35AFF4F2D
:1035A000F0829FB7F8940B8FEA89FB898081806253
:1035B0000AC09FB7F894EE89FF896083E889F9898A
:1035C00080818370806480839FBF81E090E0DF9181
:1035D000CF911F910F91FF90EF900895CF93DF93BC
:1035E000EC01888D8823C1F0EA89FB89808185FD03
:1035F00005C0A889B9898C9186FD0EC00FB607FC5D
:10360000F5CF808185FFF2CFA889B9898C9185FF9C
:10361000EDCFCE0175DFE8CFDF91CF9108952F92E6
:103620003F924F925F926F927F928F929F92AF9252
:10363000BF92CF92DF92EF92FF920F931F93CF939F
:10364000DF93CDB7DEB7E1970FB6F894DEBF0FBEBC
:10365000CDBF1C01CB017A01BE016F5F7F4F0E947D
:10366000D829BE016F5E7F4FC7010E94D829E98427
:10367000FA841B85BC85AD84BE84CF84D8889980AC
:103680004A805B806C807D808E80EF81E9A3F88525
:10369000FAA3ECE1F3E01BA21CA21DA21EA21FA232
:1036A00018A619A61AA69082418252826382748259
:1036B000858289A186839AA1978338969701412FA5
:1036C0005B2FB501C60108E30E941333A92CB42C6B
:1036D000C52CD62CE72CF82C09A11AA10E942E3358
:1036E0007901142FB52F5B016C012BA13CA14DA1D9
:1036F0005EA16FA178A589A59AA5A1E00E943733A4
:103700002BA73CA74DA75EA76FA778AB89ABA92FC6
:103710008BA1E8269CA1F9268DA118279EA1B92787
:103720008FA1A82698A5B92689A5C8269AA5D92625
:10373000292D342D452D562D672D782D802F9AA1BA
:1037400003E00E9413339E2C92264F2C4326512EC9
:1037500054266B2E65267A2C76268B2C87268C2574
:1037600089A39D259AA38BA58BA39CA59CA38DA51E
:103770008DA39EA59EA38FA58FA398A998A789A97D
:1037800089A7AAA72BA13CA14DA15EA16FA1792F6A
:103790009A2FAFE10E944C3309F085CF9092140428
:1037A0004092150450921604609217047092180407
:1037B00080921904B9A1B0931A04EAA1E0931B0402
:1037C000E9898A889B88FC89FAA3AD89ABA3FE8925
:1037D0004F88588C198DBA8DB9A3AB8CBC8CCD8C0D
:1037E000DE8CEF8CF8A08CE1682E84E0782E212FFF
:1037F0002E2739A138254A2D49255AA15B256BA1D1
:103800006C257D2D7F278E2D84259F2D95250DE3FD
:103810000E941333E22F832E942E5AA36BA3F72F0B
:103820002C0188E0681A7108D3012C912127119688
:103830003C91B9A13B27D30112964C9112974A258E
:1038400013965C9113975B2514966C9114976C25D5
:1038500015967C9115977D2516968C91169717963F
:103860009C918E259F25AE2EB82CC92CDAA0EBA0FA
:10387000FF2E82010E94433308E00E941333122F6F
:1038800039A35A016B017C018CE193E08615970501
:1038900009F0ADCFD101EC932E2F382D492D5AA12F
:1038A0006BA17F2FC2010E94F73211962C931197C2
:1038B0002E2F382D492D5AA16BA17F2FC20100E177
:1038C0000E94F73212962C9312972E2F382D492DE5
:1038D0005AA16BA17F2FC20108E10E94F732139613
:1038E0002C9313972E2F382D492D5AA16BA17F2F82
:1038F000C20100E20E94F73214962C9314972E2FE7
:10390000382D492D5AA16BA17F2FC20108E20E94D8
:10391000F73215962C9315972E2F382D492D5AA135
:103920006BA17F2FC20100E30E94F73216962C9301
:1039300016972E2F382D492D5AA16BA17F2FC2012A
:1039400008E30E94F73217962C93179718961C934A
:103950001897212F39A1A501B601C70108E00E94DF
:10396000F73219962C93212F39A1A501B601C70171
:1039700000E10E94F732F1012287212F39A1A50130
:10398000B601C70108E10E94F7322387212F39A130
:10399000A501B601C70100E20E94F7322487212F5A
:1039A00039A1A501B601C70108E20E94F7322587B7
:1039B000212F39A1A501B601C70100E30E94F7320A
:1039C0002687212F39A1A501B601C70108E30E946E
:1039D000F7322787E1960FB6F894DEBF0FBECDBF52
:1039E000DF91CF911F910F91FF90EF90DF90CF90DB
:1039F000BF90AF909F908F907F906F905F904F900F
:103A00003F902F9008952F923F924F925F926F9226
:103A10007F928F929F92AF92BF92CF92DF92EF925E
:103A2000FF920F931F93CF93DF93CDB7DEB76297CB
:103A30000FB6F894DEBF0FBECDBF9C878B877E8705
:103A40006D875A83498348015901FC82EB82D70173
:103A500012964D915C911397440F551F440F551FBB
:103A600060E070E014968D919C9115970E94A234AD
:103A7000EB81FC810480F581E02DF887EF83A9813B
:103A8000BA8112960D90BC91A02DBA8BA98BED85B1
:103A9000FE850280F381E02DFA87E987AE17BF0724
:103AA00014F4BA87A98789899A8901969C01220F03
:103AB000331F220F331F388B2F872F8038841E82AD
:103AC0001D82AB85BC8514968D919C911597ED81D7
:103AD000FE8129893A89E217F3070CF052C091015F
:103AE0004F815885241B350BFC01E20FF31FC0806A
:103AF000D180E280F380AD85BE851496ED91FC9176
:103B000015976081718182819381A70196010E943E
:103B1000BA32D1014D905D906D907C909B01AC01CB
:103B2000240D351D461D571DC501B4010E94BA3232
:103B30002B013C0197018601A101BF0189859A856E
:103B40000E94A500E981FA81648175819301820157
:103B5000A10189899A890E94A500D101CD92DD92A7
:103B6000ED92FD921D01EF85F889EA0FFB1F10828F
:103B7000118212821382ED81FE813196FE83ED83E4
:103B8000A0CFA9014F5F5F4F440F551F440F551F32
:103B9000B90137FF02C060E070E0660F771F660F63
:103BA000771FAF81B8856A0F7B1F0E9499346981A6
:103BB0007A818B859C850E940315EB85FC85248189
:103BC000358197FD08C0A981BA8114966D917C91C9
:103BD0001597A90105C0EB81FC8144815581B9018C
:103BE00089899A8962960FB6F894DEBF0FBECDBF61
:103BF000DF91CF911F910F91FF90EF90DF90CF90C9
:103C0000BF90AF909F908F907F906F905F904F90FC
:103C10003F902F900C94DE132F923F924F925F9221
:103C20006F927F928F929F92AF92BF92CF92DF92CC
:103C3000EF92FF920F931F93CF93DF93CDB7DEB731
:103C40002E970FB6F894DEBF0FBECDBF5C013B01CF
:103C50004A011F921F921E0127E0220E311C3F9243
:103C60002F9281E090E08C0F9D1F9F938F93B2DA8B
:103C70000F900F900F900F900F900F90A614B70415
:103C800059F4B501CE01019601D96C01892B09F0D7
:103C90009EC0DE0111963D01A814B90441F4B5019E
:103CA000C101F4D86C01892B09F091C04101F301E5
:103CB00042805380F1E04F1A5108C201880F991FCA
:103CC000880F991F57FC10C0D3011496ED91FC91F9
:103CD0001597E80FF91F4081518162817381049724
:103CE000452B462B472B61F0F401E280F380F1E095
:103CF000EF1AF108C701880F991F880F991F17C085
:103D000021E0421A5108DECFD4011496ED91FC91C6
:103D10001597E80FF91F40815181628173810497E3
:103D2000452B462B472B29F4B1E0EB1AF108F7FE9F
:103D3000EBCFB2016E0D7F1D6E5F7F4FC5010E94FC
:103D4000DF156C01892B09F042C060E070E0C5010D
:103D500061D86C01892BD9F5F2013196FE87ED8788
:103D60002701440C551C440C551CF7FC20C0D40101
:103D70001496ED91FC911597E40DF51D00811181CC
:103D800022813381F50144815581440D551DD301B4
:103D900014966D917C9115978D859E850E94A50046
:103DA000B1E0EB1AF108E4E04E1A5108DECFD3017E
:103DB0004D915C91F40120813181429FC001439F6C
:103DC000900D529F900D1124D5018D939C931F92BD
:103DD0001F92E1E0F0E0EC0FFD1FFF93EF933F92A5
:103DE0002F92B8D90F900F900F900F900F900F90C7
:103DF000C6012E960FB6F894DEBF0FBECDBFDF9181
:103E0000CF911F910F91FF90EF90DF90CF90BF90D7
:103E1000AF909F908F907F906F905F904F903F906A
:103E20002F9008952F923F924F925F926F927F92C0
:103E30008F929F92AF92BF92CF92DF92EF92FF92BA
:103E40000F931F93CF93DF93CDB7DEB7C455D1093E
:103E50000FB6F894DEBF0FBECDBF3C0178AF6FAB9D
:103E60005CAB4BABCA01D4D4892B09F4DEC31F92DF
:103E70001F928E01095F1F4F1F930F934E012DE07C
:103E8000820E911C9F928F925E0133E1A30EB11CB2
:103E9000BF92AF927E0149E1E40EF11CFF92EF92D6
:103EA0006E015FE1C50ED11CDF92CF9293D96BA951
:103EB0007CA98FA998AD0E9403150FB6F894DEBFB8
:103EC0000FBECDBF97FF10C06114710419F4212CEF
:103ED000312CAFC36FA978ADC3010E9446171C01F6
:103EE000892B09F088C3F3CF6FA978ADC6010E9472
:103EF00046171C01892B09F07EC36BA97CA9C70159
:103F00000E9446171C01892B09F075C381E090E0DF
:103F10009A8F898F98A38F8FEFA9F8AD62817381F3
:103F20006E5F7F4FC5010E94DF151C01892B09F0D0
:103F300062C360E070E0C5010E940A171C01892B72
:103F400009F059C362E070E0C4010E94DF151C0152
:103F5000892B09F050C363E070E0C8010E94DF15AF
:103F60001C01892B09F047C3C7010E948C1560E230
:103F700070E00E94C9328F319105B9F02FE130E035
:103F8000A901481B590B5AAF49AFBA01C6010E949B
:103F90002D16009709F02EC369AD7AADC7010E94B6
:103FA0002D16009709F026C302C01AAE19AEA9A0BB
:103FB000BAA0C50101979AAB89AB0B8D1C8DD801B6
:103FC0001197BCAFABAF6C01CA1ADB0A460135E0F2
:103FD000880C991C3A95E1F7B401C7010E942D168F
:103FE000CC0CDD1CCC0CDD1CBE01675E7F4FCE010E
:103FF0004F960E94661497FD18C0EF89F88DEC0D5E
:10400000FD1D80819181A281B3810196A11DB11D09
:1040100080839183A283B383AE01475E5F4FBE016D
:10402000615E7F4FCB0177D9DFCFB401CE014996D6
:104030000E94742BEBADFCADEE0FFF1FEE0FFF1FC8
:104040002396FFAFEEAF239734976396FFAFEEAFA3
:104050006397C5018250904C2C01440C551C440CB4
:10406000551C9501201B310B3EAB2DAB2CEF2003D3
:10407000A001219F500D112465965FAF4EAF65974B
:104080008DA99EA925E0880F991F2A95E1F76196D1
:104090009FAF8EAF619725961FAE1EAE2597EBADF5
:1040A000FCAD29A93AA9E217F3070CF083C20BA1D2
:1040B0001CA1D20114962F96BFAFAEAF2F97FD0172
:1040C000E00FF11FC080D180E280F380ED8DFE8D86
:1040D00023962EAD3FAD2397E20FF31F8080918092
:1040E000A280B380C814D904EA04FB04A0F0EDA9AF
:1040F000FEA9E150F04CEE0FFF1FEE0FFF1F8F895E
:10410000988DE80FF91F8FEF9FEFDC01808391837B
:10411000A283B383EEC0A5019401442755272996B5
:104120002CAF3DAF4EAF5FAF2997C501AA27BB2784
:1041300021968CAF9DAFAEAFBFAF2197C701B6013F
:1041400021962CAD3DAD4EAD5FAD21970E948932D9
:1041500029A73AA74BA75CA721962CAD3DAD4EAD44
:104160005FAD219769A57AA58BA59CA50E94BA325F
:10417000C61AD70AE80AF90A7601DD24CC24F80128
:10418000E40DF51D20813181428153812D962CAFA4
:104190003DAF4EAF5FAF2D97CA01AA27BB27C82AF4
:1041A000D92AEA2AFB2A29962CAD3DAD4EAD5FAD4A
:1041B000299769A57AA58BA59CA50E94BA32C61637
:1041C000D706E806F906D0F429A53AA54BA55CA5C3
:1041D000215031094109510929A73AA74BA75CA7EA
:1041E000C80CD91CEA1CFB1CC814D904EA04FB0443
:1041F00028F0C616D706E806F90630F3C61AD70A1D
:10420000E80AF90AC701B60121962CAD3DAD4EADC5
:104210005FAD21970E9489322DA73EA74FA758ABCB
:1042200021962CAD3DAD4EAD5FAD21976DA57EA520
:104230008FA598A90E94BA32C61AD70AE80AF90AC5
:104240007601DD24CC242D968CAD9DADAEADBFADF9
:104250002D97AA27BB27C82AD92AEA2AFB2A2996FA
:104260002CAD3DAD4EAD5FAD29976DA57EA58FA55B
:1042700098A90E94BA32C616D706E806F906D0F405
:104280002DA53EA54FA558A9215031094109510935
:104290002DA73EA74FA758ABC80CD91CEA1CFB1C86
:1042A000C814D904EA04FB0428F0C616D706E806A9
:1042B000F90630F3EDA9FEA9E150F04CEE0FFF1F17
:1042C000EE0FFF1F8F89988DE80FF91F29A53AA5DA
:1042D0004BA55CA5D901992788278DA49EA4AFA4DE
:1042E000B8A8882A992AAA2ABB2A80829182A28207
:1042F000B38265960EAD1FAD65970C5F1F4F040D21
:10430000151DEF89F88DE00FF11F80819181A28149
:10431000B3810196A11DB11D80839183A283B383D4
:10432000720134E0E31AF108EF89F88DE00FF11F14
:1043300080819181A281B3810197A109B109808314
:104340009183A283B38360E070E0CE010D960E945A
:104350000A17009709F04EC1E989FA898D8D9E8D63
:104360004BAD5CAD141615065CF46396AEADBFADF7
:104370006397A80FB91F4D915D916D917C9103C01A
:1043800040E050E0BA0140835183628373832396F7
:10439000AEADBFAD2397A80FB91F8D919D910D9024
:1043A000BC91A02D84839583A683B783EF89F88D74
:1043B000E00FF11F80819181A281B381E1E0F0E003
:1043C000FA83E983FC83EB8325E230E02C0F3D1F69
:1043D0003E832D838DA39EA3AFA3B8A7AE014F5FED
:1043E0005F4FBE01635F7F4FCB0116DC009709F082
:1043F00001C160E070E0CE0107960E940A170097A5
:1044000009F0F8C0EB85FC858BA19CA149A95AA9AC
:104410004230510544F0DC01AE0DBF1D4D915D9160
:104420006D917C9103C040E050E0BA01408351831C
:1044300062837383A9A9BAA91A161B064CF4DC017E
:10444000A40DB51D8D919D910D90BC91A02D03C023
:1044500080E090E0DC0184839583A683B783ABA1E1
:10446000BCA12F962EAD3FAD2F97A20FB31F8D91FC
:104470009D910D90BC91A02D80879187A287B387D5
:10448000BE01695F7F4FCE010D960E94661418161B
:1044900019060CF449CFEF89F88DE00FF11F8081E8
:1044A0009181A281B38141E050E05A8349835C83CA
:1044B0004B83E5E2F0E0EC0FFD1FFE83ED838DA35F
:1044C0009EA3AFA3B8A7AE014F5F5F4FBE01675E6B
:1044D0007F4FCE010D96A0DB009709F08BC061964F
:1044E000EEACFFAC6197F0E2EF1AF10825962EAD25
:1044F0003FAD2597E20EF31EB701CE010D960E9447
:104500002D16009709F076C0AE01435F5F4FBE01E4
:10451000615E7F4FCB010E948B19009709F06AC042
:10452000CE014F9675D197FF2DC0BE01675E7F4FBC
:10453000CE010D960E944617009709F05BC0B701A7
:10454000CE010D960E942D16009709F053C0AE01C2
:10455000435F5F4FBE01615E7F4FCB010E94C9196F
:10456000009709F047C0EF89F88DE00FF11F8081B7
:104570009181A281B3810197A109B10980839183BF
:10458000A283B38349A95AA9415051095AAB49ABF7
:1045900025968EAD9FAD2597809725969FAF8EAFC0
:1045A000259794E0491A5108ADA9BEA91197BEAB51
:1045B000ADAB75CD61147104F1F069AD7AADCE018A
:1045C0004F960E94742BBE01615E7F4FC3010E9413
:1045D0004617AFA9B8AD8D919C91F301918380836B
:1045E000C30116D1892B39F481E090E0D3018D937A
:1045F0009C9301C01C011F921F92CE0107969F93AE
:104600008F9306969F938F9306969F938F9306960C
:104610009F938F9306969F938F930E94AA180FB62D
:10462000F894DEBF0FBECDBF04C084EF282E332424
:104630003A9421143104F1F4C301EAD097FF11C078
:104640004BA95CA9B301C3010E94C9190097A1F34A
:1046500010C04BA95CA9B301C3010E948B1900973C
:1046600041F46BA97CA9C3010E94661497FFF1CFA6
:1046700001C01C01C101CC5ADF4F0FB6F894DEBF58
:104680000FBECDBFDF91CF911F910F91FF90EF90A3
:10469000DF90CF90BF90AF909F908F907F906F9062
:1046A0005F904F903F902F900895CF92DF92EF92BE
:1046B000FF920F931F93CF93DF936C017A018B01CD
:1046C000C0E0D0E0CE15DF0581F0D8016D918D01FD
:1046D000D601ED91FC910190F081E02DC601199574
:1046E000892B11F02196EECF7E01C701DF91CF918A
:1046F0001F910F91FF90EF90DF90CF90089583E08E
:1047000099E00E943B1A21E0892B09F420E0822FD6
:1047100008950E9495341F920F920FB60F921124A4
:104720000BB60F922F933F934F935F936F937F93AB
:104730008F939F93AF93BF93EF93FF9383E099E0A1
:104740000E94801AFF91EF91BF91AF919F918F913D
:104750007F916F915F914F913F912F910F900BBE81
:104760000F900FBE0F901F9018951F920F920FB6CB
:104770000F9211240BB60F922F938F939F93EF9369
:10478000FF93E0911309F09114098081E0911909D8
:10479000F0911A0982FD12C0908180911C098F5FEF
:1047A0008F7320911D09821751F0E0911C09F0E0F0
:1047B000ED5FF64F958F80931C0901C08081FF91BA
:1047C000EF919F918F912F910F900BBE0F900FBE85
:1047D0000F901F901895009761F0FC010190002048
:1047E000E9F73197AF01481B590BBC0183E099E011
:1047F0005CCF80E090E00895CF93DF93ECDFEC0195
:1048000080E592E0E8DF8C0F9D1FDF91CF91089546
:10481000CF93DF93CDB7DEB72A970FB6F894DEBFFC
:104820000FBECDBF1F82188619861A8621E030E0A0
:104830003A8329833C832B839E01295F3F4F3E832C
:104840002D83BE016F5F7F4F0E9466142A960FB6BC
:10485000F894DEBF0FBECDBFDF91CF9108954F9288
:104860005F926F927F92AF92BF92CF92DF92EF9260
:10487000FF920F931F93CF93DF9300D000D0CDB75B
:10488000DEB76C018B011F921F92AE014F5F5F4F2D
:104890005A015F934F930E94EA18F801019000209B
:1048A000E9F73197BF01601B710B660F771F660F29
:1048B000771F615E7F4F85E0769567958A95E1F772
:1048C000C6010E94DF157C010F900F900F900F9092
:1048D000892B09F096C060E070E0C6010E940A17BB
:1048E0007C01892B09F08DC0F80101900020E9F7C7
:1048F0003197E01BF10B9F0121503109E00FF11FAF
:1049000080E090E037FD7DC02115310551F4D801DC
:104910004C914D3231F48FEF9FEFF60191838083FC
:1049200070C0429150ED540F5A3060F4442E042E62
:10493000000C550850E3451A5108052C000C660878
:10494000770804C0412C512C32014A945FEB540F7C
:10495000563058F4442E042E000C5508A7E34A1A8A
:104960005108052C000C660877085FE9540F563093
:1049700058F4442E440F5508B7E54B1A5108052C3E
:10498000000C660877080BC040E14416510461042E
:10499000710428F07AEFE72EFF24FA9432C0AC01BC
:1049A00063E0559547956A95E1F7440F551F440F0D
:1049B000551FD60114966D917C911597DB01A40FBC
:1049C000B51FAC0147705527440F551F440F551FA5
:1049D00004C0440C551C661C771C4A95D2F74D91B7
:1049E0005D916D917C911397442A552A662A772A06
:1049F0004D925D926D927C921397215031090196F0
:104A000081CF1F921F92BF92AF920E94AA180F905F
:104A10000F900F900F90C70126960FB6F894DEBF47
:104A20000FBECDBFDF91CF911F910F91FF90EF90FF
:104A3000DF90CF90BF90AF907F906F905F904F903E
:104A400008952F923F924F925F926F927F928F9232
:104A50009F92AF92BF92CF92DF92EF92FF920F930D
:104A60001F93CF93DF93CDB7DEB7C65AD1400FB6B1
:104A7000F894DEBF0FBECDBFC356DE4F9983888347
:104A8000CD59D1404B01CB55DE4F59834883C55A90
:104A9000D140C756DE4F39832883C959D140C90157
:104AA000B7DE97FD69C4C756DE4FA881B981C959E1
:104AB000D1401496ED91FC91159720803180428071
:104AC000538020FE59C41F921F923E01B9E76B1A12
:104AD000BEEF7B0A7F926F925E01E3E7AE1AEEEFC4
:104AE000BE0ABF92AF920E94EA18FE01319680E89A
:104AF00091E0DF019C011D9221503040E1F7CB5540
:104B0000DE4F88819981C55AD1400E948C150F9043
:104B10000F900F900F900F900F90803A32E0930714
:104B20008CF4803F9105BCF480359105ECF44897F6
:104B300024F541E050E0C556DE4F59834883CB59F8
:104B4000D14023C086E090E0C556DE4F998388832C
:104B5000CB59D1401AC0A5E0B0E0C556DE4FB983AD
:104B6000A883CB59D14011C0E4E0F0E0C556DE4F38
:104B7000F983E883CB59D14008C023E030E0C55623
:104B8000DE4F39832883CB59D140C756DE4FA881E9
:104B9000B981C959D1401296CD90DC901397BFEFDF
:104BA000CB1ADB0AB601C356DE4F88819981CD59F5
:104BB000D1400E94DF15C956DE4F99838883C759BB
:104BC000D140892B09F078C3B601CE0107960E9427
:104BD000DF15C956DE4F99838883C759D140892B89
:104BE00009F06AC3B601660F771FC3010E94DF1583
:104BF000C956DE4F99838883C759D140892B09F064
:104C00005BC361E070E0C5010E940A17C956DE4F20
:104C100099838883C759D140892B09F04DC3C75662
:104C2000DE4FE881F981C959D14062817381F6E094
:104C3000660F771FFA95E1F7C5010E942D16C95638
:104C4000DE4F99838883C759D140892B09F034C33B
:104C5000C756DE4F48815981C959D140B501C501B8
:104C6000E1D8C956DE4F99838883C759D140892B33
:104C700009F022C3C756DE4F68817981C959D140F6
:104C8000C4010E94661497FD0BC0C756DE4F4881D1
:104C90005981C959D140B401CE010796C3D805C086
:104CA000B401CE0107960E94461752014101F2E07D
:104CB0008F0E911CA11CB11C24E082229924AA24ED
:104CC000BB24880C991CAA1CBB1C820C931CA41C22
:104CD000B51CA2019101C501B4010E94BA32E2E003
:104CE000CE2ED12CE12CF12CA7019601261B370BDF
:104CF000480B590BCA01B901A50194010E94BA32AF
:104D00004B015C01A20191010E94BA32A7019601F8
:104D1000261B370B480B590BCA01B901A501940199
:104D20000E94BA324B015C01A20191010E94BA3289
:104D30009B01AC012C193D094E095F09C501B40165
:104D40000E94BA322B013C016E0139E7C31A3EEFD3
:104D5000D30A76018B019C01C756DE4F48815981E9
:104D6000C959D140BE0163577E4FCE0107960E94BC
:104D7000031DBE0163577E4FC356DE4F8881998164
:104D8000CD59D1400E944617C956DE4F998388837A
:104D9000C759D140892B09F08FC2FE01ED56FE4F55
:104DA00081E090E0A0E0B0E080839183A283B383B0
:104DB000AA24A394B12CCF57DE4FB982A882C15840
:104DC000D140CD57DE4FB982A882C358D140CB57CE
:104DD000DE4FF983E883C558D14093018201C7565D
:104DE000DE4F48815981C959D140BE016F577E4F6E
:104DF000C356DE4F88819981CD59D1400E94031D51
:104E0000C556DE4F48815981CB59D14041305105BB
:104E100001F5CB55DE4FA881B981C55AD140129614
:104E20000D90BC91A02DCD55DE4FB983A883C35AF8
:104E3000D140812C912C5401C156DE4F1982188229
:104E4000CF59D140CF55DE4F19821882C15AD14077
:104E5000F8C0C556DE4FE881F981CB59D140319772
:104E6000C156DE4FF983E883CF59D1401501C156B1
:104E7000DE4F0880CF59D14002C0220C331C0A9467
:104E8000E2F786E0829D5001839DB00C112421E061
:104E900030E02C0F3D1FA20EB31EC756DE4FA88177
:104EA000B981C959D14012966D917C9113976F5F6A
:104EB0007F4FC5010E94DF15009709F0F7C1BE01C1
:104EC000695F7F4FC5010E944617009709F0EEC148
:104ED000812C912C760193018201C756DE4F4881C7
:104EE0005981C959D140B501C5010E94031DBFEFC9
:104EF0008B1A9B0AC156DE4FE881F981CF59D14008
:104F00008E169F063CF35101FFEFAF1ABF0A81E0F6
:104F100090E04C01C556DE4F0880CB59D14002C00D
:104F2000880C991C0A94E2F786E0829D7001839DAB
:104F3000F00C112421E030E02C0F3D1FE20EF31E97
:104F4000A814B9040CF065CF670136E0C30ED11C7C
:104F5000C756DE4FA881B981C959D14012966D91CB
:104F60007C9113976F5F7F4FC6010E94DF150097FA
:104F700009F09CC1B701C6010E944617009709F0CD
:104F800095C1FE01E957FE4F7F0193018201C7568B
:104F9000DE4F48815981C959D140BE01695F7F4FB9
:104FA000C6010E94031DFFEFAF1ABF0A7601C8CFEA
:104FB000A12CB12CDE01A957BE4F7D0193018201C6
:104FC000C756DE4F48815981C959D140C356DE4F7B
:104FD00068817981CD59D140CB010E94031DBFEF7B
:104FE000AB1ABB0AC556DE4FE881F981CB59D140D7
:104FF000EA15FB05F9F6F6E0FC9DB001FD9D700D8C
:10500000112421E030E02C0F3D1F620F731F93012C
:105010008201C756DE4F48815981C959D140C356D4
:10502000DE4F88819981CD59D1400E94031D812C8A
:10503000912C54018394C156DE4F19821882CF59A6
:10504000D140212C312CCF55DE4F28813981C15AD6
:10505000D140232B69F5CD55DE4F88819981C35A04
:10506000D1400197CD55DE4F48815981C35AD14077
:10507000452B81F481E090E05C01C556DE4F08804D
:10508000CB59D14002C0AA0CBB1C0A94E2F7C12C38
:10509000D12CCEC0CD55DE4F99838883C35AD140E1
:1050A00080E290E0CF55DE4F99838883C15AD1408A
:1050B000CF55DE4FA881B981C15AD1401197CF5544
:1050C000DE4FB983A883C15AD140CB55DE4FA881AA
:1050D000B981C55AD1401496ED91FC911597CD55E3
:1050E000DE4F88819981C35AD140880F991F880F5C
:1050F000991FE80FF91F80819181A281B381CF555B
:10510000DE4F0880C15AD14004C0B695A795979547
:1051100087950A94D2F76C017D01E1E0CE22DD246F
:10512000EE24FF2480FD22C081149104A104B10467
:1051300009F489CFF1E08F169104A104B104B1F410
:105140009E0129573E4F790193018201C756DE4FD8
:1051500048815981C959D140C356DE4F6881798150
:10516000CD59D140CB010E94031D6DCFC156DE4FFA
:1051700048815981CF59D1404F5F5F4FC156DE4FB3
:1051800059834883CF59D140C556DE4F88819981D4
:10519000CB59D140841B950B04C0CC0CDD1CEE1CFC
:1051A000FF1C8A95D2F7C228D3281601C556DE4FB8
:1051B00088819981CB59D1408417950709F4F8CE9D
:1051C00032E0832E912CA12CB12C3DCFCE018957FA
:1051D0009E4F7C0193018201C756DE4F4881598161
:1051E000C959D140C356DE4F68817981CD59D1402C
:1051F000CB010E94031D220C331CC1018A219B217B
:10520000892B99F093018201C756DE4F488159815D
:10521000C959D140BE01695F7F4FC356DE4F8881B7
:105220009981CD59D1400E94031DBFEFCB1ADB0AF3
:10523000C156DE4FE881F981CF59D140CE16DF0645
:105240002CF2FE01ED56FE4F81E090E0A0E0B0E0D0
:1052500080839183A283B383CF57DE4F9983888362
:10526000C158D140CD57DE4F99838883C358D14070
:10527000CB57DE4FF983E883C558D1409E012957AB
:105280003E4F790193018201C756DE4F4881598113
:10529000C959D140BE016F577E4FC356DE4F88813A
:1052A0009981CD59D1400E94031D06C0C956DE4FD9
:1052B00099838883C759D140C556DE4F28813981EB
:1052C000CB59D1402150310981E090E06C0102C0FE
:1052D000CC0CDD1C2A95E2F77C01C556DE4F088018
:1052E000CB59D14002C0EE0CFF1C0A94E2F786E0D5
:1052F0008C9D40018D9D900C1124A12CB12CCE14BD
:10530000DF04D4F41F921F92C4018A0D9B1D41E05B
:1053100050E04C0F5D1F840F951F9F938F930E9449
:10532000AA185FEFC51AD50A86E0A80EB11C0F9027
:105330000F900F900F90E3CF1F921F92CE018357D3
:105340009E4F9F938F9306979F938F938058914082
:105350009F938F930E94AA180FB6F894DEBF0FBEDA
:10536000CDBFC956DE4F8881C759D140C856DE4FE0
:105370009881C859D14002C08CEF9FEFCA55DE4FCB
:105380000FB6F894DEBF0FBECDBFDF91CF911F9156
:105390000F91FF90EF90DF90CF90BF90AF909F90D4
:1053A0008F907F906F905F904F903F902F900895D7
:1053B000AF92BF92CF92DF92EF92FF920F931F9323
:1053C000CF93DF93DC01FB0112962C91129730E012
:1053D00040E050E060E070E080E090E000E10E949A
:1053E000DC32B22EC32ED42EE52EF62E172FD82F58
:1053F000C92F11962C91119730E040E050E060E009
:1054000070E080E090E008E00E94DC32B22AC32A1B
:10541000D42AE52AF62A172BD82BC92B8C91B82A27
:1054200013962C91139730E040E050E060E070E07C
:1054300080E090E008E10E94DC32B22AC32AD42A3C
:10544000E52AF62A172BD82BC92B14962C911497E2
:1054500030E040E050E060E070E080E090E000E2AA
:105460000E94DC32B22AC32AD42AE52AF62A172B54
:10547000D82BC92B15962C91159730E040E050E0C1
:1054800060E070E080E090E008E20E94DC32B22A46
:10549000C32AD42AE52AF62A172BD82BC92B16960D
:1054A0002C91169730E040E050E060E070E080E042
:1054B00090E000E30E94DC32B22AC32AD42AE52A13
:1054C000F62A172BD82BC92B17962C91179730E05B
:1054D00040E050E060E070E080E090E008E30E948F
:1054E000DC322B2920833C2931834D2942835E29DC
:1054F00053836F296483712B75838D2B86839C2B3B
:10550000978319962C91199730E040E050E060E0C5
:1055100070E080E090E008E00E94DC32D22FB32EF1
:105520006A01E62EA72E182FC92F1A962C911A97CA
:1055300030E040E050E060E070E080E090E000E1CA
:105540000E94DC322D2BB32AC42AD52AE62AA72AA8
:10555000F12EF82AC92B18961C911897D22FD12B0F
:105560001B962C911B9730E040E050E060E070E02B
:1055700080E090E008E10E94DC32D22BB32AC42AFA
:10558000D52AE62AA72A1F2D182BC92B1C962C9149
:105590001C9730E040E050E060E070E080E090E098
:1055A00000E20E94DC32D22BB32AC42AD52AE62A92
:1055B000FA2CF72A182BC92B1D962C911D9730E039
:1055C00040E050E060E070E080E090E008E2F4D776
:1055D000D22BB32AC42AD52AE62AF72A182BC92B9C
:1055E0001E962C911E9730E040E050E060E070E0A5
:1055F00080E090E000E3E0D7D22BB32AC42AD52A7A
:10560000E62AF72A182BC92B1F962C9130E040E090
:1056100050E060E070E080E090E008E3CDD72D2B13
:1056200020873B2931874C2942875D2953876E2982
:1056300064877F297587812B86879C2B9787DF91CD
:10564000CF911F910F91FF90EF90DF90CF90BF907F
:10565000AF9008951F920F920FB60F9211242F93BF
:105660003F938F939F93AF93BF938091FF08909147
:105670000009A0910109B09102093091A40923E029
:10568000230F2D3720F40196A11DB11D05C026E87A
:10569000230F0296A11DB11D2093A4098093FF083A
:1056A00090930009A0930109B09302098091A00989
:1056B0009091A109A091A209B091A3090196A11D01
:1056C000B11D8093A0099093A109A093A209B09362
:1056D000A309BF91AF919F918F913F912F910F900F
:1056E0000FBE0F901F9018954F925F926F927F920E
:1056F0008F929F92AF92BF92EF92FF920F931F9360
:10570000CF93DF93DC01AB0177FF02C0415E5F4FB7
:10571000F5E055954795FA95E1F76F7177271416DF
:105720001506BCF06115710509F487C012968D91BC
:105730009C9113977C01EE0CFF1CEE0CFF1C40E0CB
:1057400050E0812C912C5401C0E2D0E0C61BD70B55
:1057500045C01296CD91DC9113979E01241B350B09
:10576000440F551F440F551F00E010E080E090E00B
:1057700082179307C4F41496ED91FC9115973F019D
:10578000600E711E7301E40EF51EF701808091809A
:10579000A280B380F30180829182A282B3820196BB
:1057A0000C5F1F4FE5CF37FF02C020E030E0C9019A
:1057B000880F991F880F991F2C173D070CF0B2CF47
:1057C0001496ED91FC911597E80FF91F1082118244
:1057D000128213822F5F3F4F0496EECF0197445001
:1057E000510997FD2AC01496ED91FC9115979701E8
:1057F000240F351FE20FF31F4080518062807380B9
:1058000093018201062E04C03695279517950795BA
:105810000A94D2F7082919292A293B2900831183E0
:1058200022833383530142010C2E04C0880C991C3F
:10583000AA1CBB1C0A94D2F7D1CF80E090E0DF9184
:10584000CF911F910F91FF90EF90BF90AF909F90DD
:105850008F907F906F905F904F900895CF93DF93DC
:10586000CDB7DEB7CD53D1400FB6F894DEBF0FBE33
:10587000CDBF789484B5826084BD84B5816084BDD9
:1058800085B5826085BD85B5816085BD80916E00DE
:10589000816080936E00109281008091810082600F
:1058A000809381008091810081608093810080914C
:1058B00080008160809380008091B100846080933B
:1058C000B1008091B00081608093B0008091910020
:1058D000826080939100809191008160809391001B
:1058E000809190008160809390008091A1008260FF
:1058F0008093A1008091A10081608093A10080919C
:10590000A00081608093A00080912101826080933B
:1059100021018091210181608093210180912001EA
:1059200081608093200180917A00846080937A0066
:1059300080917A00826080937A0080917A00816001
:1059400080937A0080917A00806880937A00109228
:10595000C100E0911309F091140982E08083E09185
:105960000F09F09110091082E0911109F0911209CC
:1059700080E1808310921B09E0911709F0911809CA
:1059800096E09083E0911509F0911609908190615D
:105990009083E0911509F0911609908198609083A9
:1059A000E0911509F0911609908190689083E0913B
:1059B0001509F091160990819F7D90833E0122EE9A
:1059C000620E711CEAE0F2E0D30101900D928A951B
:1059D000E1F71092E5041092E4049E012E533F4F2C
:1059E000B90180E090E0DC0140E050E0C45CDE4FB3
:1059F0002883CC53D140C35CDE4F3883CD53D14094
:105A00006C017D01EFEFCE1ADE0AEE0AFE0A40318C
:105A1000510579F08E5E9C41AC4FBF4FABBFFC018E
:105A20008791DB018D93BD014F5F5F4FD701C601A9
:105A3000E7CFB301FE01319680E090E07F01D9010C
:105A40005D919D01DB014D91BD014527419301967B
:105A500080319105A1F79093E5048093E4041092BE
:105A6000F9081092F8080091F8081091F90800362A
:105A70001105A4F51092E5041092E4045801B8E46D
:105A8000AB1AB4EFBB0AC090E404D090E504E0E1A7
:105A9000CE16D1049CF4C5018C0D9D1D06D5E2EDFA
:105AA000F0E0EC0FFD1FEC0DFD1D8083FFEFCF1A22
:105AB000DF0AD092E504C092E404E5CFAE014E5275
:105AC0005F4FB701C8018459974F0E940F1B005FB9
:105AD0001F4F1093F9080093F808C5CF1092F908EA
